:020000040000FA
:100000000C9462000C948A000C948A000C948A0070
:100010000C948A000C948A000C948A000C9440047E
:100020000C948A000C948A000C948A000C94650449
:100030000C948A000C948A000C948A000C948A0018
:100040000C949E030C948A000C940E040C94E80308
:100050000C948A000C948A000C948A000C948A00F8
:100060000C948A000C948A000000000024002700F1
:100070002A0000000000250028002B0000000008D6
:10008000000201000003040700000000000000005F
:1000900000000000230026002900040404040404D6
:1000A0000404020202020202030303030303010227
:1000B00004081020408001020408102001020408F6
:1000C0001020660511241FBECFEFD8E0DEBFCDBFE4
:1000D00011E0A0E0B1E0ECE9F6E102C005900D927C
:1000E000AA37B107D9F722E0AAE7B1E001C01D9213
:1000F000AD34B207E1F710E0C2E6D0E004C02197CA
:10010000FE010E94460BC136D107C9F70E94C30504
:100110000C944C0B0C94000090E0FC01E458FF4F51
:100120002491FC01E255FF4F3491FC01E656FF4F4C
:10013000E491EE23C9F0222339F0233001F1A8F431
:10014000213019F1223029F1F0E0EE0FFF1FEE58B7
:10015000FF4FA591B4918FB7F894EC91611126C02F
:1001600030953E233C938FBF08952730A9F0283067
:10017000C9F0243049F7809180008F7D03C08091C1
:1001800080008F7780938000DFCF84B58F7784BD28
:10019000DBCF84B58F7DFBCF8091B0008F778093CC
:1001A000B000D2CF8091B0008F7DF9CF3E2BDACF57
:1001B000CF93DF9390E0FC01E255FF4F24918656E8
:1001C0009F4FFC0184918823D1F090E0880F991F04
:1001D000FC01E859FF4FA591B491FC01EE58FF4F87
:1001E000C591D49161110EC09FB7F8948C91E22F04
:1001F000E0958E238C932881E223E8839FBFDF91D3
:10020000CF9108958FB7F894EC91E22BEC938FBFC8
:10021000F6CF3FB7F8948091840190918501A09129
:100220008601B091870126B5A89B05C02F3F19F024
:100230000196A11DB11D3FBFBA2FA92F982F882766
:10024000BC01CD01620F711D811D911D42E0660F41
:10025000771F881F991F4A95D1F70895AF92BF92D3
:10026000CF92DF92EF92FF920F931F93CF93DF9382
:100270006C017B018B01040F151FEB015E01AE18B1
:10028000BF08C017D10759F06991D601ED91FC91D3
:100290000190F081E02DC6010995892B79F7C50100
:1002A000DF91CF911F910F91FF90EF90DF90CF9052
:1002B000BF90AF900895FC01538D448D252F30E001
:1002C000842F90E0821B930B541710F0CF96089563
:1002D00001970895FC01918D828D981761F0A28D90
:1002E000AE0FBF2FB11D5D968C91928D9F5F9F7356
:1002F000928F90E008958FEF9FEF0895FC01918D0C
:10030000828D981731F0828DE80FF11D858D90E078
:1003100008958FEF9FEF0895FC01918D228D892F15
:1003200090E0805C9F4F821B91098F7399270895FD
:1003300088E891E00E948C0121E0892B09F420E0FB
:10034000822F089580E090E0892B29F00E94980187
:1003500081110C9400000895FC01A48DA80FB92F01
:10036000B11DA35ABF4F2C91848D90E001968F73DD
:100370009927848FA689B7892C93A089B1898C91FC
:10038000837080648C93938D848D981306C002884B
:10039000F389E02D80818F7D80830895EF92FF9215
:1003A0000F931F93CF93DF93EC0181E0888F9B8D98
:1003B0008C8D98131AC0E889F989808185FF15C052
:1003C0009FB7F894EE89FF896083E889F989808175
:1003D0008370806480839FBF81E090E0DF91CF9144
:1003E0001F910F91FF90EF900895F62E0B8D10E066
:1003F0000F5F1F4F0F731127E02E8C8D8E110CC0D5
:100400000FB607FCFACFE889F989808185FFF5CF1F
:10041000CE010E94AC01F1CFEB8DEC0FFD2FF11D51
:10042000E35AFF4FF0829FB7F8940B8FEA89FB895C
:1004300080818062CFCFCF93DF93EC01888D8823BA
:10044000B9F0AA89BB89E889F9898C9185FD03C037
:10045000808186FD0DC00FB607FCF7CF8C9185FF1C
:10046000F2CF808185FFEDCFCE010E94AC01E9CFB4
:10047000DF91CF9108950F931F9390E0FC01E25517
:10048000FF4F6491FC01E656FF4FE491F0E0EE0F60
:10049000FF1FE057FF4F8591949100E412E42FE095
:1004A00030E0462F0E9421056115710581059105F7
:1004B00029F06F5F7F4F8F4F9F4F9F701F910F915C
:1004C0000895FC0101900020E9F73197AF01481B26
:1004D000590BBC0188E891E00C942E0182E191E077
:1004E0000C9461028F929F92AF92BF920F931F93D1
:1004F000CF93DF93CDB7DEB7A1970FB6F894DEBFE9
:100500000FBECDBF19A2423008F44AE08E010F5D44
:100510001F4F842E912CB12CA12CA50194010E9477
:10052000DC08E62FB901CA01EA30F4F4E05DD80135
:10053000EE938D01232B242B252B79F790E080E07F
:10054000109719F0CD010E946102A1960FB6F894A0
:10055000DEBF0FBECDBFDF91CF911F910F91BF9036
:10056000AF909F908F900895E95CE1CFCF93DF9398
:100570000E946102EC010E946E028C0F9D1FDF91B0
:10058000CF9108954F925F926F927F928F929F9238
:10059000AF92BF92CF92DF92EF92FF920F931F9391
:1005A000CF936B017C01742EAC019B010E94350B33
:1005B000882399F085E191E0CF911F910F91FF90F1
:1005C000EF90DF90CF90BF90AF909F908F907F90F3
:1005D0006F905F904F900C94610246015701E89430
:1005E000B7F82FEF3FEF4FE75FE7C501B4010E9477
:1005F000350B81110DC02FEF3FEF4FE75FE7C501CE
:10060000B4010E946B0918161CF489E191E0D4CF63
:100610002FEF3FEF4FE75FE4C701B6010E94C30A27
:1006200018161CF48DE191E0C7CF2FEF3FEF4FE795
:100630005FECC701B6010E946B0987FDF3CF20E094
:1006400030E0A901C701B6010E946B0910E000E08B
:1006500087FF0AC06DE288E891E00E94CE018C011C
:10066000F7FAF094F7F8F094C0E060E070E080E012
:100670009FE37C1641F020E030E040E251E40E942C
:100680007009CF5FF6CFA70196010E94FF082B01EA
:100690003C010E94E2094B015C014AE00E947202A7
:1006A0007C01E00EF11ECC23C1F1C501B4010E9412
:1006B000110A9B01AC01C301B2010E94FE084B016B
:1006C0005C016EE288E891E00E94CE01E80EF91E1E
:1006D000C15018F120E030E040E251E4C501B4011E
:1006E0000E94C80A2B013C010E94E2094B01B12C77
:1006F000A12C4AE0C501B4010E947202E80EF91E65
:10070000C501B4010E94110A9B01AC01C301B201F1
:100710000E94FE084B015C01DBCFC701CF911F9106
:100720000F91FF90EF90DF90CF90BF90AF909F9090
:100730008F907F906F905F904F9008951F920F92CF
:100740000FB60F9211242F933F938F939F93AF93E4
:10075000BF938091800190918101A0918201B0911D
:10076000830130917F0123E0230F2D3758F5019647
:10077000A11DB11D20937F01809380019093810181
:10078000A0938201B09383018091840190918501AF
:10079000A0918601B09187010196A11DB11D8093A2
:1007A000840190938501A0938601B0938701BF9146
:1007B000AF919F918F913F912F910F900FBE0F900E
:1007C0001F90189526E8230F0296A11DB11DD2CFC8
:1007D0001F920F920FB60F9211242F933F934F93B6
:1007E0005F936F937F938F939F93AF93BF93EF9399
:1007F000FF9388E891E00E94AC01FF91EF91BF91D7
:10080000AF919F918F917F916F915F914F913F91A8
:100810002F910F900FBE0F901F9018951F920F925F
:100820000FB60F9211242F938F939F93EF93FF9303
:10083000E0919801F09199018081E0919E01F09101
:100840009F0182FD1BC090818091A1018F5F8F73FA
:100850002091A201821741F0E091A101F0E0E85758
:10086000FE4F958F8093A101FF91EF919F918F9102
:100870002F910F900FBE0F901F9018958081F4CF8D
:100880001F920F920FB60F9211242F933F934F9305
:100890005F936F937F938F939F93AF93BF93EF93E8
:1008A000FF93F0E0E0E00995FF91EF91BF91AF91E8
:1008B0009F918F917F916F915F914F913F912F9178
:1008C0000F900FBE0F901F9018951F920F920FB6AA
:1008D0000F9211242F933F934F935F936F937F93C6
:1008E0008F939F93AF93BF93CF93DF93EF93FF9338
:1008F00080917E01C0914902D0E087FF24C0109210
:1009000085001092840080917E018F5F80937E012C
:1009100080917E01082E000C990B8C179D0724F402
:1009200080917E018C30C4F180918400909185008B
:10093000049680349C4908F47AC080918400909198
:100940008500049676C080917E01082E000C990BDC
:100950008C179D07C4F6E0917E018E2FEE0F990B48
:10096000FC01EE0FFF1FE80FF91FEB5DFD4F8081CB
:1009700086FFC9CFE0917E018E2FEE0F990BFC010F
:10098000EE0FFF1FE80FF91FEB5DFD4F808160E068
:100990008F730E948C00B7CF209184003091850026
:1009A000E0917E018E2FEE0F990BFC01EE0FFF1FE1
:1009B000E80FF91FEB5DFD4F81819281820F931F3C
:1009C0009093890080938800E0917E018E2FEE0F36
:1009D000990BFC01EE0FFF1FE80FF91FEB5DFD4FB8
:1009E000808186FF11C0E0917E018E2FEE0F990B62
:1009F000FC01EE0FFF1FE80FF91FEB5DFD4F80813B
:100A000061E08F730E948C00FF91EF91DF91CF9195
:100A1000BF91AF919F918F917F916F915F914F9116
:100A20003F912F910F900FBE0F901F90189580E46B
:100A30009CE990938900809388008FEF80937E01DA
:100A4000E3CFCF92DF92EF92FF920F931F93E82FA5
:100A5000F92F05C0015011092109310961F1908177
:100A600096239417B9F305C00150110921093109E2
:100A700011F1908196239413F7CFC12CD12CE12C46
:100A8000F12C0AC08FEFC81AD80AE80AF80A0C1528
:100A90001D052E053F0579F080818623841791F38B
:100AA0006C2D7D2D8E2D9F2D1F910F91FF90EF901E
:100AB000DF90CF90089560E070E080E090E01F91BB
:100AC0000F91FF90EF90DF90CF90089510928B01DF
:100AD00010928A0188EE93E0A0E0B0E080938C0150
:100AE00090938D01A0938E01B0938F0184E091E0EB
:100AF000909389018093880185EC90E09093950113
:100B00008093940184EC90E09093970180939601F8
:100B100080EC90E0909399018093980181EC90E0B3
:100B200090939B0180939A0182EC90E090939D01B9
:100B300080939C0186EC90E090939F0180939E01AE
:100B40001092A1011092A2011092A3011092A4018F
:100B5000809149028C3098F491E0980F909349026B
:100B600080934A0290E0FC01EE0FFF1FE80FF91F8F
:100B7000EB5DFD4F88EB9BE09283818308958FEFBF
:100B800080934A020895789484B5826084BD84B5C8
:100B9000816084BD85B5826085BD85B5816085BD78
:100BA00080916E00816080936E0010928100809130
:100BB00081008260809381008091810081608093B8
:100BC0008100809180008160809380008091B100DD
:100BD00084608093B1008091B00081608093B00008
:100BE00080917A00846080937A0080917A0082609C
:100BF00080937A0080917A00816080937A0080915E
:100C00007A00806880937A001092C100E091980188
:100C1000F091990182E08083E0919401F091950137
:100C20001082E0919601F09197018FEC80831092F1
:100C3000A001E0919C01F0919D0186E08083E0910C
:100C40009A01F0919B01808180618083E0919A01FB
:100C5000F0919B01808188608083E0919A01F091FE
:100C60009B01808180688083E0919A01F0919B01D3
:100C700080818F7D808380914A028C3008F051C042
:100C800061E08CE00E94D80080914A02282F30E079
:100C9000F901EE0FFF1FE20FF31FEB5DFD4F908197
:100CA000907C9C60908310924B0210924C022CE03E
:100CB000622F0E943A0B829FB001112430E020E0A5
:100CC000AB01420F531FFA01EE0FFF1FE40FF51F98
:100CD000EB5DFD4F908196FD16C02F5F3F4F2C308E
:100CE000310571F781110FC01092800082E080936E
:100CF00081001092850010928400B19A80916F005B
:100D0000826080936F00E0914A028E2F90E0FC0198
:100D1000EE0FFF1FE80FF91FEB5DFD4F8081806430
:100D2000808360E08DE00E94D80061E08AE00E944C
:100D3000D80060E088E00E94D80061E089E00E946D
:100D4000D80060E086E00E94D80061E087E00E9461
:100D5000D80061E08CE00E94D80061E082E00E944F
:100D6000D80061E083E00E94D80061E084E00E9446
:100D7000D80061E085E00E94D80003E010E0C3E203
:100D8000D0E090E0292E90E0392E61E082E00E94D0
:100D90008C0060E083E00E948C0061E084E00E94AF
:100DA0008C0060E085E00E948C0060E087E00E949B
:100DB0008C00C8010197F1F761E087E00E948C0088
:100DC000CE010197F1F760E087E00E948C0086E099
:100DD0000E943B020E94110A20E030E842E254E403
:100DE0000E9470094B015C0160E089E00E948C0068
:100DF000C8010197F1F761E089E00E948C00CE0103
:100E00000197F1F760E089E00E948C0088E00E9481
:100E10003B020E94110A20E030E842E254E40E94C2
:100E200070092B013C0160E08AE00E948C00C8013F
:100E30000197F1F761E08AE00E948C00CE010197F2
:100E4000F1F760E08AE00E948C008DE00E943B0296
:100E50000E94110A20E030E842E254E40E94700946
:100E60006B017C010E946E0281E291E00E94B60259
:100E70000E946E0242E0C701B6010E94C20289E4EC
:100E800091E00E94610242E0C301B2010E94C202ED
:100E900089E491E00E94610242E0C501B4010E9430
:100EA000C20220E030E040E252E4C301B2010E94FD
:100EB000C30A1816B4F461E082E00E948C0061E07D
:100EC00083E00E948C0061E084E00E948C0061E07D
:100ED00085E00E948C000E946E0282E591E00E94F3
:100EE000B60220E030E040E252E4C501B4010E94C5
:100EF0006B0920E030E040E252E487FF58C0C701B0
:100F0000B6010E94C30A18160CF0DEC020E030E0E3
:100F100040E252E4C301B2010E946B0987FFD4C0D2
:100F200060E082E00E948C0061E083E00E948C001F
:100F300061E084E00E948C0060E085E00E948C000B
:100F40000E946E028FE591E00E94B6020E940901A4
:100F50004B015C0180EDC82E87E0D82EE12CF12CEE
:100F60000E940901681979098A099B09683E734042
:100F700081059105A8F321E0C21AD108E108F10822
:100F800088EE880E83E0981EA11CB11CC114D10408
:100F9000E104F10429F72114310409F4F6CE0E948A
:100FA0009801882309F4F1CE0E940000EECEC5011D
:100FB000B4010E94C30A18160CF054C020E030E0BF
:100FC00040E252E4C701B6010E946B0987FF55C099
:100FD00020E030E040E252E4C301B2010E946B091C
:100FE00087FFD8C061E082E00E948C0060E083E06F
:100FF0000E948C0060E084E00E948C0061E085E04B
:101000000E948C000E946E0289E691E09DCFA501AE
:101010009401C301B2010E946B0981111FC060E0FD
:1010200070E080E89FE3A70196010E946B0981119F
:101030008DCF60E082E00E948C0060E083E00E943F
:101040008C0060E084E00E948C0060E085E00E94FB
:101050008C000E946E0284E791E076CF60E070E041
:10106000CB01E1CF20E030E040E252E4C501B40121
:101070000E94C30A18160CF069CF20E030E040E26D
:1010800052E4C701B6010E94C30A18160CF05ECFE5
:1010900020E030E040E252E4C301B2010E946B095B
:1010A00087FF54CFA5019401C701B6010E94C30A6E
:1010B00018160CF435CFA5019401C701B6010E94A2
:1010C0006B0987FD8FCF42CF20E030E040E252E451
:1010D000C501B4010E94C30A18160CF462C020E0D6
:1010E00030E040E252E4C701B6010E946B0987FF7D
:1010F000B9CF20E030E040E252E4C301B2010E94E7
:101100006B0987FFAFCFA5019401C701B6010E940B
:101110006B0987FF08C0A5019401C301B2010E94B9
:101120006B0987FD5FCFA5019401C701B6010E943D
:10113000C30A18164CF4A3019201C701B6010E941C
:10114000C30A18160CF4ECCEA5019401C301B20138
:101150000E94C30A18160CF05ACFA3019201C701CE
:10116000B6010E946B0987FF79CF61E082E00E949F
:101170008C0061E083E00E948C0061E084E00E94CA
:101180008C0061E085E00E948C000E946E0282E586
:1011900091E0DACE20E030E040E252E4C501B40153
:1011A000A4CF20E030E040E252E4C701B6010E9443
:1011B0006B0987FD0DCF93CFA1E21A2EAA1BBB1B93
:1011C000FD010DC0AA1FBB1FEE1FFF1FA217B30713
:1011D000E407F50720F0A21BB30BE40BF50B661F29
:1011E000771F881F991F1A9469F7609570958095ED
:1011F00090959B01AC01BD01CF0108955058BB27CC
:10120000AA270E9416090C94890A0E947B0A38F0CA
:101210000E94820A20F039F49F3F19F426F40C94BE
:10122000780A0EF4E095E7FB0C94720AE92F0E940D
:101230009A0A58F3BA17620773078407950720F0D4
:1012400079F4A6F50C94BC0A0EF4E0950B2EBA2F97
:10125000A02D0B01B90190010C01CA01A0011124BC
:10126000FF27591B99F0593F50F4503E68F11A1668
:10127000F040A22F232F342F4427585FF3CF4695F9
:1012800037952795A795F0405395C9F77EF41F161B
:10129000BA0B620B730B840BBAF09150A1F0FF0FE5
:1012A000BB1F661F771F881FC2F70EC0BA0F621FD1
:1012B000731F841F48F4879577956795B795F795C1
:1012C0009E3F08F0B0CF9395880F08F09927EE0F56
:1012D0009795879508950E944E0A08F481E0089535
:1012E0000E9484090C94890A0E94820A58F00E9484
:1012F0007B0A40F029F45F3F29F00C94720A5111E7
:101300000C94BD0A0C94780A0E949A0A68F39923F7
:10131000B1F3552391F3951B550BBB27AA276217F1
:101320007307840738F09F5F5F4F220F331F441FFE
:10133000AA1FA9F335D00E2E3AF0E0E832D0915032
:101340005040E695001CCAF72BD0FE2F29D0660F1F
:10135000771F881FBB1F261737074807AB07B0E862
:1013600009F0BB0B802DBF01FF2793585F4F3AF068
:101370009E3F510578F00C94720A0C94BD0A5F3FB1
:10138000E4F3983ED4F3869577956795B795F795EE
:101390009F5FC9F7880F911D9695879597F90895D6
:1013A000E1E0660F771F881FBB1F62177307840772
:1013B000BA0720F0621B730B840BBA0BEE1F88F781
:1013C000E09508950E94A20A88F09F5798F0B92FDF
:1013D0009927B751B0F0E1F0660F771F881F991F6A
:1013E0001AF0BA95C9F714C0B13091F00E94BC0A46
:1013F000B1E008950C94BC0A672F782F8827B85F56
:1014000039F0B93FCCF3869577956795B395D9F7C1
:101410003EF490958095709561957F4F8F4F9F4FCB
:101420000895E89409C097FB3EF4909580957095D7
:1014300061957F4F8F4F9F4F9923A9F0F92F96E920
:10144000BB279395F695879577956795B795F11195
:10145000F8CFFAF4BB0F11F460FF1BC06F5F7F4F32
:101460008F4F9F4F16C0882311F096E911C0772344
:1014700021F09EE8872F762F05C0662371F096E84D
:10148000862F70E060E02AF09A95660F771F881F1C
:10149000DAF7880F9695879597F90895990F0008C0
:1014A000550FAA0BE0E8FEEF16161706E807F90736
:1014B000C0F012161306E407F50798F0621B730BD1
:1014C000840B950B39F40A2661F0232B242B252B52
:1014D00021F408950A2609F4A140A6958FEF811DF5
:1014E000811D089597F99F6780E870E060E0089596
:1014F0009FEF80EC089500240A941616170618062C
:101500000906089500240A94121613061406050607
:101510000895092E0394000C11F4882352F0BB0F98
:1015200040F4BF2B11F460FF04C06F5F7F4F8F4FFB
:101530009F4F089557FD9058440F551F59F05F3F36
:1015400071F04795880F97FB991F61F09F3F79F0E5
:1015500087950895121613061406551FF2CF469567
:10156000F1DF08C0161617061806991FF1CF8695E9
:101570007105610508940895E894BB2766277727CD
:10158000CB0197F908950E944E0A08F48FEF089551
:101590000E94DB0A0C94890A0E947B0A38F00E94A0
:1015A000820A20F0952311F00C94720A0C94780AA8
:1015B00011240C94BD0A0E949A0A70F3959FC1F3FE
:1015C000950F50E0551F629FF001729FBB27F00DF1
:1015D000B11D639FAA27F00DB11DAA1F649F662746
:1015E000B00DA11D661F829F2227B00DA11D621F95
:1015F000739FB00DA11D621F839FA00D611D221F4F
:10160000749F3327A00D611D231F849F600D211D32
:10161000822F762F6A2F11249F5750409AF0F1F0B5
:1016200088234AF0EE0FFF1FBB1F661F771F881F1E
:1016300091505040A9F79E3F510580F00C94720ADA
:101640000C94BD0A5F3FE4F3983ED4F386957795FA
:101650006795B795F795E7959F5FC1F7FE2B880FC4
:10166000911D9695879597F908950E944E0A880BCB
:10167000990B0895991B79E004C0991F961708F0FB
:10168000961B881F7A95C9F780950895EE0FFF1F66
:101690000590F491E02D0994F894FFCF000000002C
:1016A000CE012E015B011B028C016A017E010D0A35
:1016B000006E616E00696E66006F76660044697345
:1016C00074616E63652066726F6D20746865206F4B
:1016D000626A65637420746F206561636820736556
:1016E0006E736F72002020202020202020004D4F9C
:1016F000564520464F5257415244004D4F564520C3
:101700004C454654004D4F564520524947485400D9
:0617100053544F5000008D
:107E0000112484B714BE81FFF0D085E080938100F7
:107E100082E08093C00088E18093C10086E0809377
:107E2000C20080E18093C4008EE0C9D0259A86E02C
:107E300020E33CEF91E0309385002093840096BBD3
:107E4000B09BFECF1D9AA8958150A9F7CC24DD24C4
:107E500088248394B5E0AB2EA1E19A2EF3E0BF2EE7
:107E6000A2D0813461F49FD0082FAFD0023811F036
:107E7000013811F484E001C083E08DD089C08234E0
:107E800011F484E103C0853419F485E0A6D080C0E4
:107E9000853579F488D0E82EFF2485D0082F10E0AE
:107EA000102F00270E291F29000F111F8ED06801E7
:107EB0006FC0863521F484E090D080E0DECF843638
:107EC00009F040C070D06FD0082F6DD080E0C81688
:107ED00080E7D80618F4F601B7BEE895C0E0D1E017
:107EE00062D089930C17E1F7F0E0CF16F0E7DF06D8
:107EF00018F0F601B7BEE89568D007B600FCFDCFD4
:107F0000A601A0E0B1E02C9130E011968C91119780
:107F100090E0982F8827822B932B1296FA010C0160
:107F200087BEE89511244E5F5F4FF1E0A038BF0790
:107F300051F7F601A7BEE89507B600FCFDCF97BE46
:107F4000E89526C08437B1F42ED02DD0F82E2BD052
:107F50003CD0F601EF2C8F010F5F1F4F84911BD097
:107F6000EA94F801C1F70894C11CD11CFA94CF0C13
:107F7000D11C0EC0853739F428D08EE10CD085E9AC
:107F80000AD08FE07ACF813511F488E018D01DD067
:107F900080E101D065CF982F8091C00085FFFCCF94
:107FA0009093C60008958091C00087FFFCCF809118
:107FB000C00084FD01C0A8958091C6000895E0E648
:107FC000F0E098E1908380830895EDDF803219F02E
:107FD00088E0F5DFFFCF84E1DECF1F93182FE3DFCA
:107FE0001150E9F7F2DF1F91089580E0E8DFEE27F6
:047FF000FF270994CA
:027FFE00040479
:00000001FF
